{
  "contractName": "ContractGame",
  "abi": [
    {
      "anonymous": false,
      "inputs": [
        {
          "indexed": false,
          "internalType": "address",
          "name": "winner",
          "type": "address"
        },
        {
          "indexed": false,
          "internalType": "uint256",
          "name": "winAmount",
          "type": "uint256"
        }
      ],
      "name": "GameResult",
      "type": "event"
    },
    {
      "inputs": [],
      "name": "amount",
      "outputs": [
        {
          "internalType": "uint256",
          "name": "",
          "type": "uint256"
        }
      ],
      "stateMutability": "view",
      "type": "function"
    },
    {
      "inputs": [],
      "name": "candidateCount",
      "outputs": [
        {
          "internalType": "uint256",
          "name": "",
          "type": "uint256"
        }
      ],
      "stateMutability": "view",
      "type": "function"
    },
    {
      "inputs": [],
      "name": "player1",
      "outputs": [
        {
          "internalType": "address payable",
          "name": "",
          "type": "address"
        }
      ],
      "stateMutability": "view",
      "type": "function"
    },
    {
      "inputs": [],
      "name": "player2",
      "outputs": [
        {
          "internalType": "address payable",
          "name": "",
          "type": "address"
        }
      ],
      "stateMutability": "view",
      "type": "function"
    },
    {
      "inputs": [],
      "name": "playerId",
      "outputs": [
        {
          "internalType": "uint256",
          "name": "",
          "type": "uint256"
        }
      ],
      "stateMutability": "view",
      "type": "function"
    },
    {
      "inputs": [],
      "name": "progress",
      "outputs": [
        {
          "internalType": "bool",
          "name": "",
          "type": "bool"
        }
      ],
      "stateMutability": "view",
      "type": "function"
    },
    {
      "inputs": [
        {
          "internalType": "uint256",
          "name": "",
          "type": "uint256"
        }
      ],
      "name": "studentIds",
      "outputs": [
        {
          "internalType": "uint256",
          "name": "",
          "type": "uint256"
        }
      ],
      "stateMutability": "view",
      "type": "function"
    },
    {
      "inputs": [
        {
          "internalType": "uint256",
          "name": "amountValue",
          "type": "uint256"
        },
        {
          "internalType": "address",
          "name": "addressPlayer1",
          "type": "address"
        }
      ],
      "name": "createGame",
      "outputs": [],
      "stateMutability": "nonpayable",
      "type": "function"
    },
    {
      "inputs": [
        {
          "internalType": "address",
          "name": "playerAddress",
          "type": "address"
        }
      ],
      "name": "removeGame",
      "outputs": [],
      "stateMutability": "nonpayable",
      "type": "function"
    },
    {
      "inputs": [
        {
          "internalType": "uint256",
          "name": "id",
          "type": "uint256"
        }
      ],
      "name": "getGame",
      "outputs": [
        {
          "internalType": "address payable",
          "name": "",
          "type": "address"
        },
        {
          "internalType": "uint256",
          "name": "",
          "type": "uint256"
        }
      ],
      "stateMutability": "view",
      "type": "function"
    },
    {
      "inputs": [],
      "name": "getAllGames",
      "outputs": [
        {
          "components": [
            {
              "internalType": "uint256",
              "name": "id",
              "type": "uint256"
            },
            {
              "internalType": "address payable",
              "name": "player",
              "type": "address"
            },
            {
              "internalType": "uint256",
              "name": "amount",
              "type": "uint256"
            }
          ],
          "internalType": "struct ContractGame.playersList[]",
          "name": "",
          "type": "tuple[]"
        }
      ],
      "stateMutability": "view",
      "type": "function"
    },
    {
      "inputs": [],
      "name": "newGame",
      "outputs": [],
      "stateMutability": "payable",
      "type": "function"
    },
    {
      "inputs": [],
      "name": "random",
      "outputs": [
        {
          "internalType": "uint256",
          "name": "",
          "type": "uint256"
        }
      ],
      "stateMutability": "nonpayable",
      "type": "function"
    },
    {
      "inputs": [
        {
          "internalType": "uint256",
          "name": "id",
          "type": "uint256"
        }
      ],
      "name": "play",
      "outputs": [],
      "stateMutability": "payable",
      "type": "function"
    }
  ],
  "bytecode": "0x608060405234801561001057600080fd5b50611149806100206000396000f3fe6080604052600436106100dd5760003560e01c80637d03f5f31161007f578063aa8c217c11610059578063aa8c217c14610283578063bce24669146102ae578063d30895e4146102d7578063db1c45f914610302576100dd565b80637d03f5f314610210578063a2f77bcc1461021a578063a9a981a314610258576100dd565b80635ec01e4d116100bb5780635ec01e4d146101615780636898f82b1461018c5780636f28c355146101a8578063713c0e1a146101e5576100dd565b80633ea11222146100e2578063577bd3361461010b57806359a5f12d14610136575b600080fd5b3480156100ee57600080fd5b5061010960048036038101906101049190610b91565b61032d565b005b34801561011757600080fd5b506101206103f2565b60405161012d9190610dea565b60405180910390f35b34801561014257600080fd5b5061014b610405565b6040516101589190610d5b565b60405180910390f35b34801561016d57600080fd5b5061017661042b565b6040516101839190610e05565b60405180910390f35b6101a660048036038101906101a19190610b68565b610486565b005b3480156101b457600080fd5b506101cf60048036038101906101ca9190610b68565b610556565b6040516101dc9190610e05565b60405180910390f35b3480156101f157600080fd5b506101fa61057a565b6040516102079190610e05565b60405180910390f35b610218610580565b005b34801561022657600080fd5b50610241600480360381019061023c9190610b68565b61058c565b60405161024f929190610d76565b60405180910390f35b34801561026457600080fd5b5061026d6105da565b60405161027a9190610e05565b60405180910390f35b34801561028f57600080fd5b506102986105e0565b6040516102a59190610e05565b60405180910390f35b3480156102ba57600080fd5b506102d560048036038101906102d09190610b3f565b6105e6565b005b3480156102e357600080fd5b506102ec61086d565b6040516102f99190610d5b565b60405180910390f35b34801561030e57600080fd5b50610317610891565b6040516103249190610dc8565b60405180910390f35b60006007600060065481526020019081526020016000209050818160010160006101000a81548173ffffffffffffffffffffffffffffffffffffffff021916908373ffffffffffffffffffffffffffffffffffffffff16021790555082816002018190555060086006549080600181540180825580915050600190039060005260206000200160009091909190915055600660008154809291906103d090610fd2565b9190505550600560008154809291906103e890610fd2565b9190505550505050565b600360009054906101000a900460ff1681565b600160009054906101000a900473ffffffffffffffffffffffffffffffffffffffff1681565b60004244336004546040516020016104469493929190610d0d565b6040516020818303038152906040528051906020012060001c600481905550620f4240806004546104779190611049565b6104819190610e59565b905090565b6000806104928361058c565b9150915060003390506000806104a661042b565b146104b157816104b3565b835b905060006002846104c49190610e8a565b90508173ffffffffffffffffffffffffffffffffffffffff166108fc829081150290604051600060405180830381858888f1935050505015801561050c573d6000803e3d6000fd5b507f9d0859fd9865bf20a3561dc0f05b1cba79ac43380d10a5ae7bb29e998b67fb9b828260405161053e929190610d9f565b60405180910390a161054e610a0d565b505050505050565b6008818154811061056657600080fd5b906000526020600020016000915090505481565b60065481565b61058a343361032d565b565b60008060006007600085815260200190815260200160002090508060010160009054906101000a900473ffffffffffffffffffffffffffffffffffffffff1681600201549250925050915091565b60055481565b60025481565b600080600090505b6005548110156107f5578273ffffffffffffffffffffffffffffffffffffffff166007600083815260200190815260200160002060010160009054906101000a900473ffffffffffffffffffffffffffffffffffffffff1673ffffffffffffffffffffffffffffffffffffffff1614156107e25760076000828152602001908152602001600020915060076000600160055461068a9190610ee4565b815260200190815260200160002060076000838152602001908152602001600020600082015481600001556001820160009054906101000a900473ffffffffffffffffffffffffffffffffffffffff168160010160006101000a81548173ffffffffffffffffffffffffffffffffffffffff021916908373ffffffffffffffffffffffffffffffffffffffff160217905550600282015481600201559050508160076000600160055461073d9190610ee4565b8152602001908152602001600020600082015481600001556001820160009054906101000a900473ffffffffffffffffffffffffffffffffffffffff168160010160006101000a81548173ffffffffffffffffffffffffffffffffffffffff021916908373ffffffffffffffffffffffffffffffffffffffff16021790555060028201548160020155905050600560008154809291906107dc90610fa8565b91905055505b80806107ed90610fd2565b9150506105ee565b506007600060016005546108099190610ee4565b81526020019081526020016000206000808201600090556001820160006101000a81549073ffffffffffffffffffffffffffffffffffffffff0219169055600282016000905550506005600081548092919061086490610fa8565b91905055505050565b60008054906101000a900473ffffffffffffffffffffffffffffffffffffffff1681565b6060600060055467ffffffffffffffff8111156108d7577f4e487b7100000000000000000000000000000000000000000000000000000000600052604160045260246000fd5b60405190808252806020026020018201604052801561091057816020015b6108fd610ade565b8152602001906001900390816108f55790505b50905060005b600554811015610a0557600060076000838152602001908152602001600020905080604051806060016040529081600082015481526020016001820160009054906101000a900473ffffffffffffffffffffffffffffffffffffffff1673ffffffffffffffffffffffffffffffffffffffff1673ffffffffffffffffffffffffffffffffffffffff1681526020016002820154815250508383815181106109e6577f4e487b7100000000000000000000000000000000000000000000000000000000600052603260045260246000fd5b60200260200101819052505080806109fd90610fd2565b915050610916565b508091505090565b60008060006101000a81548173ffffffffffffffffffffffffffffffffffffffff021916908373ffffffffffffffffffffffffffffffffffffffff1602179055506000600160006101000a81548173ffffffffffffffffffffffffffffffffffffffff021916908373ffffffffffffffffffffffffffffffffffffffff16021790555060006002819055506000600360006101000a81548160ff021916908315150217905550610adc60008054906101000a900473ffffffffffffffffffffffffffffffffffffffff166105e6565b565b604051806060016040528060008152602001600073ffffffffffffffffffffffffffffffffffffffff168152602001600081525090565b600081359050610b24816110e5565b92915050565b600081359050610b39816110fc565b92915050565b600060208284031215610b5157600080fd5b6000610b5f84828501610b15565b91505092915050565b600060208284031215610b7a57600080fd5b6000610b8884828501610b2a565b91505092915050565b60008060408385031215610ba457600080fd5b6000610bb285828601610b2a565b9250506020610bc385828601610b15565b9150509250929050565b6000610bd98383610c96565b60608301905092915050565b610bee81610f72565b82525050565b610bfd81610f2a565b82525050565b610c0c81610f2a565b82525050565b610c23610c1e82610f18565b61101b565b82525050565b6000610c3482610e30565b610c3e8185610e48565b9350610c4983610e20565b8060005b83811015610c7a578151610c618882610bcd565b9750610c6c83610e3b565b925050600181019050610c4d565b5085935050505092915050565b610c9081610f3c565b82525050565b606082016000820151610cac6000850182610cd8565b506020820151610cbf6020850182610bf4565b506040820151610cd26040850182610cd8565b50505050565b610ce181610f68565b82525050565b610cf081610f68565b82525050565b610d07610d0282610f68565b61103f565b82525050565b6000610d198287610cf6565b602082019150610d298286610cf6565b602082019150610d398285610c12565b601482019150610d498284610cf6565b60208201915081905095945050505050565b6000602082019050610d706000830184610c03565b92915050565b6000604082019050610d8b6000830185610c03565b610d986020830184610ce7565b9392505050565b6000604082019050610db46000830185610be5565b610dc16020830184610ce7565b9392505050565b60006020820190508181036000830152610de28184610c29565b905092915050565b6000602082019050610dff6000830184610c87565b92915050565b6000602082019050610e1a6000830184610ce7565b92915050565b6000819050602082019050919050565b600081519050919050565b6000602082019050919050565b600082825260208201905092915050565b6000610e6482610f68565b9150610e6f83610f68565b925082610e7f57610e7e6110a9565b5b828204905092915050565b6000610e9582610f68565b9150610ea083610f68565b9250817fffffffffffffffffffffffffffffffffffffffffffffffffffffffffffffffff0483118215151615610ed957610ed861107a565b5b828202905092915050565b6000610eef82610f68565b9150610efa83610f68565b925082821015610f0d57610f0c61107a565b5b828203905092915050565b6000610f2382610f48565b9050919050565b6000610f3582610f48565b9050919050565b60008115159050919050565b600073ffffffffffffffffffffffffffffffffffffffff82169050919050565b6000819050919050565b6000610f7d82610f84565b9050919050565b6000610f8f82610f96565b9050919050565b6000610fa182610f48565b9050919050565b6000610fb382610f68565b91506000821415610fc757610fc661107a565b5b600182039050919050565b6000610fdd82610f68565b91507fffffffffffffffffffffffffffffffffffffffffffffffffffffffffffffffff8214156110105761100f61107a565b5b600182019050919050565b60006110268261102d565b9050919050565b6000611038826110d8565b9050919050565b6000819050919050565b600061105482610f68565b915061105f83610f68565b92508261106f5761106e6110a9565b5b828206905092915050565b7f4e487b7100000000000000000000000000000000000000000000000000000000600052601160045260246000fd5b7f4e487b7100000000000000000000000000000000000000000000000000000000600052601260045260246000fd5b60008160601b9050919050565b6110ee81610f18565b81146110f957600080fd5b50565b61110581610f68565b811461111057600080fd5b5056fea264697066735822122087419650cf128d3cbc8f0f50af27f6168b9e530459b4866c8b0e719d9f57770864736f6c63430008000033",
  "immutableReferences": {},
  "source": "pragma solidity ^0.8.0;\n\ncontract ContractGame {\n    address payable public player1;\n    address payable public player2;\n    uint256 public amount;\n    bool public progress;\n    uint256 private seed;\n    uint256 public candidateCount;\n    uint256 public playerId;\n\n    struct playersList {\n        uint256 id;\n        address payable player;\n        uint256 amount;\n    }\n\n    mapping(uint256 => playersList) players;\n    uint256[] public studentIds;\n\n    function createGame(uint256 amountValue, address addressPlayer1) public {\n        playersList storage newPlayer = players[playerId];\n        newPlayer.player = payable(addressPlayer1);\n        newPlayer.amount = amountValue;\n\n        studentIds.push(playerId);\n        playerId++;\n        candidateCount++;\n    }\n\n    function removeGame(address playerAddress) public {\n        // playersList[] storage structs = players;\n        playersList storage removeMe;\n\n        for (uint256 i = 0; i < candidateCount; i++) {\n            if (players[i].player == playerAddress) {\n                // if this is the struct we want to delete...\n                removeMe = players[i]; // save it to a variable\n                players[i] = players[candidateCount - 1]; // overwrite it with the last struct\n                players[candidateCount - 1] = removeMe;\n                candidateCount--; // overwrite the last struct with the struct we want to delete\n            }\n        }\n        delete players[candidateCount - 1];\n        candidateCount--;\n    }\n\n    function getGame(uint256 id)\n        public\n        view\n        returns (address payable, uint256)\n    {\n        playersList storage s = players[id];\n        return (s.player, s.amount);\n    }\n\n    function getAllGames() public view returns (playersList[] memory) {\n        playersList[] memory items = new playersList[](candidateCount);\n\n        for (uint256 i = 0; i < candidateCount; i++) {\n            playersList storage item = players[i];\n            items[i] = item;\n        }\n        return items;\n    }\n\n    event GameResult(address winner, uint256 winAmount);\n\n    // function bet() external payable {\n    //     require(msg.value > 0, \"Menshe 0\");\n\n    //     if (player1 == address(0)) {\n    //         player1 = payable(msg.sender);\n    //         amount = msg.value;\n\n    //         createGame(msg.value);\n    //     } else {\n    //         player2 = payable(msg.sender);\n    //         progress = true;\n    //         _play();\n    //     }\n    // }\n\n    function newGame() external payable {\n        // require(msg.value > 0, \"Amount is not valid\");\n\n        createGame(msg.value, msg.sender);\n        // if (player1 == address(0)) {\n        //     player1 = payable(msg.sender);\n        //     amount = msg.value;\n\n        //     createGame(msg.value);\n        // }\n    }\n\n    // function playGame(uint256 id) external payable {\n\n    //     // player1 = player;\n    //     // player2 = payable(msg.sender);\n    //     // amount = amountValue;\n    //     _play(player, payable(msg.sender), amountValue);\n    // }\n\n    function random() public returns (uint256) {\n        seed = uint256(\n            keccak256(\n                abi.encodePacked(\n                    block.timestamp,\n                    block.difficulty,\n                    msg.sender,\n                    seed\n                )\n            )\n        );\n        return (seed % 1000000) / 1000000;\n    }\n\n    function play(uint256 id) external payable {\n        (address payable player1Address, uint256 amountValue) = getGame(id);\n\n        // require(\n        //     (player1Address != address(0) && msg.sender != address(0)),\n        //     \"Players not found\"\n        // );\n        address payable player2Address = payable(msg.sender);\n        // uint256 winnerSeed = block.timestamp +\n        //     block.prevrandao +\n        //     (uint(keccak256(abi.encodePacked(msg.sender))) % 100);\n        // uint256 randomNumber = (uint256(\n        //     keccak256(abi.encodePacked(winnerSeed))\n        // ) % 2);\n        address payable winner = (random() == 0)\n            ? player1Address\n            : player2Address;\n        uint256 winBalance = amountValue * 2;\n        winner.transfer(winBalance);\n        emit GameResult(winner, winBalance);\n        _resetGame();\n    }\n\n    function _resetGame() private {\n        player1 = payable(address(0));\n        player2 = payable(address(0));\n        amount = 0;\n        progress = false;\n        removeGame(player1);\n    }\n}\n",
  "sourcePath": "/Users/yavis/Desktop/Private/Solidity/First app/solidity-truffle/contracts/ContractGame.sol",
  "compiler": {
    "name": "solc",
    "version": "0.8.0+commit.c7dfd78e.Emscripten.clang"
  },
  "schemaVersion": "3.4.13",
  "updatedAt": "2023-04-20T20:59:06.734Z",
  "devdoc": {
    "kind": "dev",
    "methods": {},
    "version": 1
  },
  "userdoc": {
    "kind": "user",
    "methods": {},
    "version": 1
  }
}